{
  "_format": "hh-sol-artifact-1",
  "contractName": "ReefBurnerV2",
  "sourceName": "contracts/ReefBurnerV2.sol",
  "abi": [
    {
      "inputs": [
        {
          "internalType": "address",
          "name": "_creatorWallet",
          "type": "address"
        }
      ],
      "stateMutability": "nonpayable",
      "type": "constructor"
    },
    {
      "anonymous": false,
      "inputs": [
        {
          "indexed": true,
          "internalType": "address",
          "name": "burner",
          "type": "address"
        },
        {
          "indexed": false,
          "internalType": "uint256",
          "name": "amount",
          "type": "uint256"
        },
        {
          "indexed": false,
          "internalType": "uint256",
          "name": "burnedAmount",
          "type": "uint256"
        },
        {
          "indexed": false,
          "internalType": "uint256",
          "name": "prizeAmount",
          "type": "uint256"
        },
        {
          "indexed": false,
          "internalType": "uint256",
          "name": "creatorAmount",
          "type": "uint256"
        },
        {
          "indexed": false,
          "internalType": "uint256",
          "name": "roundNumber",
          "type": "uint256"
        }
      ],
      "name": "Burned",
      "type": "event"
    },
    {
      "anonymous": false,
      "inputs": [
        {
          "indexed": false,
          "internalType": "bool",
          "name": "paused",
          "type": "bool"
        }
      ],
      "name": "EmergencyPause",
      "type": "event"
    },
    {
      "anonymous": false,
      "inputs": [
        {
          "indexed": false,
          "internalType": "uint256",
          "name": "newAmount",
          "type": "uint256"
        }
      ],
      "name": "MinBurnAmountUpdated",
      "type": "event"
    },
    {
      "anonymous": false,
      "inputs": [
        {
          "indexed": true,
          "internalType": "address",
          "name": "previousOwner",
          "type": "address"
        },
        {
          "indexed": true,
          "internalType": "address",
          "name": "newOwner",
          "type": "address"
        }
      ],
      "name": "OwnershipTransferred",
      "type": "event"
    },
    {
      "anonymous": false,
      "inputs": [
        {
          "indexed": true,
          "internalType": "address",
          "name": "winner",
          "type": "address"
        },
        {
          "indexed": false,
          "internalType": "uint256",
          "name": "prizeAmount",
          "type": "uint256"
        },
        {
          "indexed": false,
          "internalType": "uint256",
          "name": "roundNumber",
          "type": "uint256"
        },
        {
          "indexed": true,
          "internalType": "address",
          "name": "claimedBy",
          "type": "address"
        }
      ],
      "name": "PrizeClaimed",
      "type": "event"
    },
    {
      "anonymous": false,
      "inputs": [
        {
          "indexed": false,
          "internalType": "uint256",
          "name": "blockNumber",
          "type": "uint256"
        }
      ],
      "name": "RandomnessCommitted",
      "type": "event"
    },
    {
      "anonymous": false,
      "inputs": [
        {
          "indexed": false,
          "internalType": "uint256",
          "name": "randomValue",
          "type": "uint256"
        }
      ],
      "name": "RandomnessRevealed",
      "type": "event"
    },
    {
      "anonymous": false,
      "inputs": [
        {
          "indexed": false,
          "internalType": "uint256",
          "name": "roundNumber",
          "type": "uint256"
        },
        {
          "indexed": false,
          "internalType": "uint256",
          "name": "startTime",
          "type": "uint256"
        }
      ],
      "name": "RoundStarted",
      "type": "event"
    },
    {
      "anonymous": false,
      "inputs": [
        {
          "indexed": true,
          "internalType": "address",
          "name": "missedWinner",
          "type": "address"
        },
        {
          "indexed": false,
          "internalType": "uint256",
          "name": "burnedAmount",
          "type": "uint256"
        },
        {
          "indexed": false,
          "internalType": "uint256",
          "name": "roundNumber",
          "type": "uint256"
        }
      ],
      "name": "UnclaimedPrizeBurned",
      "type": "event"
    },
    {
      "anonymous": false,
      "inputs": [
        {
          "indexed": true,
          "internalType": "address",
          "name": "winner",
          "type": "address"
        },
        {
          "indexed": false,
          "internalType": "uint256",
          "name": "prizeAmount",
          "type": "uint256"
        },
        {
          "indexed": false,
          "internalType": "uint256",
          "name": "roundNumber",
          "type": "uint256"
        },
        {
          "indexed": false,
          "internalType": "uint256",
          "name": "claimableUntilRound",
          "type": "uint256"
        }
      ],
      "name": "WinnerSelected",
      "type": "event"
    },
    {
      "inputs": [],
      "name": "BURN_PERCENTAGE",
      "outputs": [
        {
          "internalType": "uint256",
          "name": "",
          "type": "uint256"
        }
      ],
      "stateMutability": "view",
      "type": "function"
    },
    {
      "inputs": [],
      "name": "CLAIM_GRACE_PERIOD",
      "outputs": [
        {
          "internalType": "uint256",
          "name": "",
          "type": "uint256"
        }
      ],
      "stateMutability": "view",
      "type": "function"
    },
    {
      "inputs": [],
      "name": "CREATOR_PERCENTAGE",
      "outputs": [
        {
          "internalType": "uint256",
          "name": "",
          "type": "uint256"
        }
      ],
      "stateMutability": "view",
      "type": "function"
    },
    {
      "inputs": [],
      "name": "MAX_BURN_AMOUNT",
      "outputs": [
        {
          "internalType": "uint256",
          "name": "",
          "type": "uint256"
        }
      ],
      "stateMutability": "view",
      "type": "function"
    },
    {
      "inputs": [],
      "name": "MAX_PARTICIPANTS_PER_ROUND",
      "outputs": [
        {
          "internalType": "uint256",
          "name": "",
          "type": "uint256"
        }
      ],
      "stateMutability": "view",
      "type": "function"
    },
    {
      "inputs": [],
      "name": "PRIZE_PERCENTAGE",
      "outputs": [
        {
          "internalType": "uint256",
          "name": "",
          "type": "uint256"
        }
      ],
      "stateMutability": "view",
      "type": "function"
    },
    {
      "inputs": [],
      "name": "ROUND_DURATION",
      "outputs": [
        {
          "internalType": "uint256",
          "name": "",
          "type": "uint256"
        }
      ],
      "stateMutability": "view",
      "type": "function"
    },
    {
      "inputs": [],
      "name": "burn",
      "outputs": [],
      "stateMutability": "payable",
      "type": "function"
    },
    {
      "inputs": [
        {
          "internalType": "uint256",
          "name": "amount",
          "type": "uint256"
        }
      ],
      "name": "calculateBurnDistribution",
      "outputs": [
        {
          "internalType": "uint256",
          "name": "burnedAmount",
          "type": "uint256"
        },
        {
          "internalType": "uint256",
          "name": "prizeContribution",
          "type": "uint256"
        },
        {
          "internalType": "uint256",
          "name": "creatorAmount",
          "type": "uint256"
        }
      ],
      "stateMutability": "pure",
      "type": "function"
    },
    {
      "inputs": [],
      "name": "claimPrize",
      "outputs": [],
      "stateMutability": "nonpayable",
      "type": "function"
    },
    {
      "inputs": [],
      "name": "creatorWallet",
      "outputs": [
        {
          "internalType": "address",
          "name": "",
          "type": "address"
        }
      ],
      "stateMutability": "view",
      "type": "function"
    },
    {
      "inputs": [],
      "name": "getContractBalance",
      "outputs": [
        {
          "internalType": "uint256",
          "name": "",
          "type": "uint256"
        }
      ],
      "stateMutability": "view",
      "type": "function"
    },
    {
      "inputs": [],
      "name": "getCurrentRoundParticipants",
      "outputs": [
        {
          "internalType": "address[]",
          "name": "",
          "type": "address[]"
        }
      ],
      "stateMutability": "view",
      "type": "function"
    },
    {
      "inputs": [],
      "name": "getRandomnessStatus",
      "outputs": [
        {
          "internalType": "bool",
          "name": "committed",
          "type": "bool"
        },
        {
          "internalType": "uint256",
          "name": "commitBlock",
          "type": "uint256"
        },
        {
          "internalType": "uint256",
          "name": "blocksUntilReveal",
          "type": "uint256"
        }
      ],
      "stateMutability": "view",
      "type": "function"
    },
    {
      "inputs": [
        {
          "internalType": "uint256",
          "name": "_roundNumber",
          "type": "uint256"
        }
      ],
      "name": "getRoundParticipants",
      "outputs": [
        {
          "internalType": "address[]",
          "name": "",
          "type": "address[]"
        }
      ],
      "stateMutability": "view",
      "type": "function"
    },
    {
      "inputs": [],
      "name": "getStatistics",
      "outputs": [
        {
          "internalType": "uint256",
          "name": "participants",
          "type": "uint256"
        },
        {
          "internalType": "uint256",
          "name": "winnersCount",
          "type": "uint256"
        },
        {
          "internalType": "uint256",
          "name": "reefBurned",
          "type": "uint256"
        },
        {
          "internalType": "uint256",
          "name": "currentPrize",
          "type": "uint256"
        },
        {
          "internalType": "uint256",
          "name": "currentRoundParticipantsCount",
          "type": "uint256"
        }
      ],
      "stateMutability": "view",
      "type": "function"
    },
    {
      "inputs": [],
      "name": "getTimeRemainingInRound",
      "outputs": [
        {
          "internalType": "uint256",
          "name": "",
          "type": "uint256"
        }
      ],
      "stateMutability": "view",
      "type": "function"
    },
    {
      "inputs": [],
      "name": "getUnclaimedPrizeInfo",
      "outputs": [
        {
          "internalType": "uint256",
          "name": "amount",
          "type": "uint256"
        },
        {
          "internalType": "address",
          "name": "winner",
          "type": "address"
        },
        {
          "internalType": "uint256",
          "name": "claimableUntilRound",
          "type": "uint256"
        },
        {
          "internalType": "uint256",
          "name": "roundsRemaining",
          "type": "uint256"
        }
      ],
      "stateMutability": "view",
      "type": "function"
    },
    {
      "inputs": [
        {
          "internalType": "address",
          "name": "user",
          "type": "address"
        }
      ],
      "name": "getUserBurnInCurrentRound",
      "outputs": [
        {
          "internalType": "uint256",
          "name": "",
          "type": "uint256"
        }
      ],
      "stateMutability": "view",
      "type": "function"
    },
    {
      "inputs": [
        {
          "internalType": "uint256",
          "name": "index",
          "type": "uint256"
        }
      ],
      "name": "getWinner",
      "outputs": [
        {
          "internalType": "address",
          "name": "winnerAddress",
          "type": "address"
        },
        {
          "internalType": "uint256",
          "name": "prizeAmount",
          "type": "uint256"
        },
        {
          "internalType": "uint256",
          "name": "roundNum",
          "type": "uint256"
        },
        {
          "internalType": "uint256",
          "name": "timestamp",
          "type": "uint256"
        },
        {
          "internalType": "bool",
          "name": "claimed",
          "type": "bool"
        }
      ],
      "stateMutability": "view",
      "type": "function"
    },
    {
      "inputs": [],
      "name": "getWinnersCount",
      "outputs": [
        {
          "internalType": "uint256",
          "name": "",
          "type": "uint256"
        }
      ],
      "stateMutability": "view",
      "type": "function"
    },
    {
      "inputs": [
        {
          "internalType": "address",
          "name": "",
          "type": "address"
        }
      ],
      "name": "hasParticipated",
      "outputs": [
        {
          "internalType": "bool",
          "name": "",
          "type": "bool"
        }
      ],
      "stateMutability": "view",
      "type": "function"
    },
    {
      "inputs": [],
      "name": "minBurnAmount",
      "outputs": [
        {
          "internalType": "uint256",
          "name": "",
          "type": "uint256"
        }
      ],
      "stateMutability": "view",
      "type": "function"
    },
    {
      "inputs": [],
      "name": "owner",
      "outputs": [
        {
          "internalType": "address",
          "name": "",
          "type": "address"
        }
      ],
      "stateMutability": "view",
      "type": "function"
    },
    {
      "inputs": [],
      "name": "pause",
      "outputs": [],
      "stateMutability": "nonpayable",
      "type": "function"
    },
    {
      "inputs": [],
      "name": "paused",
      "outputs": [
        {
          "internalType": "bool",
          "name": "",
          "type": "bool"
        }
      ],
      "stateMutability": "view",
      "type": "function"
    },
    {
      "inputs": [],
      "name": "pendingWinner",
      "outputs": [
        {
          "internalType": "address",
          "name": "",
          "type": "address"
        }
      ],
      "stateMutability": "view",
      "type": "function"
    },
    {
      "inputs": [],
      "name": "prizeClaimableUntilRound",
      "outputs": [
        {
          "internalType": "uint256",
          "name": "",
          "type": "uint256"
        }
      ],
      "stateMutability": "view",
      "type": "function"
    },
    {
      "inputs": [],
      "name": "prizePool",
      "outputs": [
        {
          "internalType": "uint256",
          "name": "",
          "type": "uint256"
        }
      ],
      "stateMutability": "view",
      "type": "function"
    },
    {
      "inputs": [],
      "name": "randomCommitBlock",
      "outputs": [
        {
          "internalType": "uint256",
          "name": "",
          "type": "uint256"
        }
      ],
      "stateMutability": "view",
      "type": "function"
    },
    {
      "inputs": [],
      "name": "randomCommitted",
      "outputs": [
        {
          "internalType": "bool",
          "name": "",
          "type": "bool"
        }
      ],
      "stateMutability": "view",
      "type": "function"
    },
    {
      "inputs": [],
      "name": "revealWinner",
      "outputs": [],
      "stateMutability": "nonpayable",
      "type": "function"
    },
    {
      "inputs": [],
      "name": "roundNumber",
      "outputs": [
        {
          "internalType": "uint256",
          "name": "",
          "type": "uint256"
        }
      ],
      "stateMutability": "view",
      "type": "function"
    },
    {
      "inputs": [
        {
          "internalType": "uint256",
          "name": "",
          "type": "uint256"
        },
        {
          "internalType": "uint256",
          "name": "",
          "type": "uint256"
        }
      ],
      "name": "roundParticipants",
      "outputs": [
        {
          "internalType": "address",
          "name": "",
          "type": "address"
        }
      ],
      "stateMutability": "view",
      "type": "function"
    },
    {
      "inputs": [],
      "name": "roundStartTime",
      "outputs": [
        {
          "internalType": "uint256",
          "name": "",
          "type": "uint256"
        }
      ],
      "stateMutability": "view",
      "type": "function"
    },
    {
      "inputs": [
        {
          "internalType": "uint256",
          "name": "_newAmount",
          "type": "uint256"
        }
      ],
      "name": "setMinBurnAmount",
      "outputs": [],
      "stateMutability": "nonpayable",
      "type": "function"
    },
    {
      "inputs": [],
      "name": "shouldEndRound",
      "outputs": [
        {
          "internalType": "bool",
          "name": "",
          "type": "bool"
        }
      ],
      "stateMutability": "view",
      "type": "function"
    },
    {
      "inputs": [],
      "name": "totalBurned",
      "outputs": [
        {
          "internalType": "uint256",
          "name": "",
          "type": "uint256"
        }
      ],
      "stateMutability": "view",
      "type": "function"
    },
    {
      "inputs": [],
      "name": "totalParticipants",
      "outputs": [
        {
          "internalType": "uint256",
          "name": "",
          "type": "uint256"
        }
      ],
      "stateMutability": "view",
      "type": "function"
    },
    {
      "inputs": [],
      "name": "totalReefBurned",
      "outputs": [
        {
          "internalType": "uint256",
          "name": "",
          "type": "uint256"
        }
      ],
      "stateMutability": "view",
      "type": "function"
    },
    {
      "inputs": [],
      "name": "totalUnclaimedBurned",
      "outputs": [
        {
          "internalType": "uint256",
          "name": "",
          "type": "uint256"
        }
      ],
      "stateMutability": "view",
      "type": "function"
    },
    {
      "inputs": [
        {
          "internalType": "address",
          "name": "",
          "type": "address"
        }
      ],
      "name": "totalUserBurned",
      "outputs": [
        {
          "internalType": "uint256",
          "name": "",
          "type": "uint256"
        }
      ],
      "stateMutability": "view",
      "type": "function"
    },
    {
      "inputs": [],
      "name": "totalWinners",
      "outputs": [
        {
          "internalType": "uint256",
          "name": "",
          "type": "uint256"
        }
      ],
      "stateMutability": "view",
      "type": "function"
    },
    {
      "inputs": [
        {
          "internalType": "address",
          "name": "newOwner",
          "type": "address"
        }
      ],
      "name": "transferOwnership",
      "outputs": [],
      "stateMutability": "nonpayable",
      "type": "function"
    },
    {
      "inputs": [],
      "name": "triggerRoundEnd",
      "outputs": [],
      "stateMutability": "nonpayable",
      "type": "function"
    },
    {
      "inputs": [],
      "name": "unclaimedPrize",
      "outputs": [
        {
          "internalType": "uint256",
          "name": "",
          "type": "uint256"
        }
      ],
      "stateMutability": "view",
      "type": "function"
    },
    {
      "inputs": [],
      "name": "unpause",
      "outputs": [],
      "stateMutability": "nonpayable",
      "type": "function"
    },
    {
      "inputs": [
        {
          "internalType": "uint256",
          "name": "",
          "type": "uint256"
        },
        {
          "internalType": "address",
          "name": "",
          "type": "address"
        }
      ],
      "name": "userBurnedInRound",
      "outputs": [
        {
          "internalType": "uint256",
          "name": "",
          "type": "uint256"
        }
      ],
      "stateMutability": "view",
      "type": "function"
    },
    {
      "inputs": [
        {
          "internalType": "uint256",
          "name": "",
          "type": "uint256"
        }
      ],
      "name": "winners",
      "outputs": [
        {
          "internalType": "address",
          "name": "winnerAddress",
          "type": "address"
        },
        {
          "internalType": "uint256",
          "name": "prizeAmount",
          "type": "uint256"
        },
        {
          "internalType": "uint256",
          "name": "roundNumber",
          "type": "uint256"
        },
        {
          "internalType": "uint256",
          "name": "timestamp",
          "type": "uint256"
        },
        {
          "internalType": "bool",
          "name": "claimed",
          "type": "bool"
        }
      ],
      "stateMutability": "view",
      "type": "function"
    },
    {
      "stateMutability": "payable",
      "type": "receive"
    }
  ],
  "bytecode": "0x60a0604052674563918244f400006005553480156200001d57600080fd5b506040516200265438038062002654833981016040819052620000409162000118565b6001600160a01b0381166200009b5760405162461bcd60e51b815260206004820152601660248201527f496e76616c69642063726561746f722077616c6c657400000000000000000000604482015260640160405180910390fd5b600080546001600160a01b031916331790556001600160601b0319606082901b1660805260016003819055426004819055600e8290556040517f278844837bcf8364a705384bf3a2812901f54155bae86dea81dd52aa5b9ec0e3926200010992908252602082015260400190565b60405180910390a15062000148565b6000602082840312156200012a578081fd5b81516001600160a01b038116811462000141578182fd5b9392505050565b60805160601c6124e66200016e600039600081816105fd0152610fb601526124e66000f3fe6080604052600436106102b25760003560e01c806381e333d211610175578063b4fb3ee3116100dc578063dab32d4d11610095578063f2fde38b1161006f578063f2fde38b14610891578063f56e42c8146108b1578063fb3a000b146108c7578063fd24537f146108dd57600080fd5b8063dab32d4d14610845578063dd4f8f741461085b578063de26eadf1461087157600080fd5b8063b4fb3ee314610763578063b5b591c814610793578063bcc941b6146107d7578063bfeaabf2146107ed578063ca9f19ef1461081a578063d89135cd1461082f57600080fd5b80639649b9101161012e5780639649b910146106cd5780639ab8e6d2146106e2578063a26dbf2614610702578063a2fb117514610718578063a8ca30d314610738578063ae5314f81461074d57600080fd5b806381e333d21461061f578063839975bb146106575780638456cb591461066d5780638da5cb5b146106825780638e81415a146106a2578063941aed7f146106b857600080fd5b806344df8e70116102195780636e7de4c6116101d25780636e7de4c61461057c5780636f9fb98a1461059857806370740ac9146105ab578063719ce73e146105c057806374b064aa146105d65780637cdc65f2146105eb57600080fd5b806344df8e70146104e75780634e2786fb146104ef5780635c975abb146105055780636641ea081461051f57806369b947e0146105355780636c6999051461056757600080fd5b80632e2106af1161026b5780632e2106af146103ac578063372d6b27146103c157806337305df5146104145780633b7de347146104415780633f4ba83a1461047e5780634129b2c91461049357600080fd5b80630b75cef4146102be5780630f8fa216146102e257806310efbc291461031d578063131327d714610355578063141b928a1461036b578063284cab621461038257600080fd5b366102b957005b600080fd5b3480156102ca57600080fd5b506015545b6040519081526020015b60405180910390f35b3480156102ee57600080fd5b506103026102fd3660046121cd565b6108f2565b604080519384526020840192909252908201526060016102d9565b34801561032957600080fd5b5060075461033d906001600160a01b031681565b6040516001600160a01b0390911681526020016102d9565b34801561036157600080fd5b506102cf60085481565b34801561037757600080fd5b50610380610992565b005b34801561038e57600080fd5b5060105461039c9060ff1681565b60405190151581526020016102d9565b3480156103b857600080fd5b506102cf600a81565b3480156103cd57600080fd5b50600954600a54600b54600254600354600090815260116020526040902054604080519586526020860194909452928401919091526060830152608082015260a0016102d9565b34801561042057600080fd5b5061043461042f3660046121cd565b610a5a565b6040516102d99190612231565b34801561044d57600080fd5b50610456610ac6565b604080519485526001600160a01b0390931660208501529183015260608201526080016102d9565b34801561048a57600080fd5b50610380610b0e565b34801561049f57600080fd5b506104b36104ae3660046121cd565b610bb8565b604080516001600160a01b03909616865260208601949094529284019190915260608301521515608082015260a0016102d9565b610380610c99565b3480156104fb57600080fd5b506102cf60035481565b34801561051157600080fd5b50600d5461039c9060ff1681565b34801561052b57600080fd5b506102cf610e1081565b34801561054157600080fd5b5061054a611159565b6040805193151584526020840192909252908201526060016102d9565b34801561057357600080fd5b506103806111b9565b34801561058857600080fd5b506102cf676f05b59d3b20000081565b3480156105a457600080fd5b50476102cf565b3480156105b757600080fd5b50610380611276565b3480156105cc57600080fd5b506102cf60025481565b3480156105e257600080fd5b506102cf601b81565b3480156105f757600080fd5b5061033d7f000000000000000000000000000000000000000000000000000000000000000081565b34801561062b57600080fd5b506102cf61063a3660046121e5565b601260209081526000928352604080842090915290825290205481565b34801561066357600080fd5b506102cf60055481565b34801561067957600080fd5b50610380611505565b34801561068e57600080fd5b5060005461033d906001600160a01b031681565b3480156106ae57600080fd5b506102cf60065481565b3480156106c457600080fd5b506102cf611592565b3480156106d957600080fd5b506102cf604181565b3480156106ee57600080fd5b506103806106fd3660046121cd565b6115c6565b34801561070e57600080fd5b506102cf60095481565b34801561072457600080fd5b506104b36107333660046121cd565b611670565b34801561074457600080fd5b5061039c6116be565b34801561075957600080fd5b506102cf600f5481565b34801561076f57600080fd5b5061039c61077e3660046121b3565b60146020526000908152604090205460ff1681565b34801561079f57600080fd5b506102cf6107ae3660046121b3565b60035460009081526012602090815260408083206001600160a01b039094168352929052205490565b3480156107e357600080fd5b506102cf600a5481565b3480156107f957600080fd5b506102cf6108083660046121b3565b60136020526000908152604090205481565b34801561082657600080fd5b506102cf600881565b34801561083b57600080fd5b506102cf60015481565b34801561085157600080fd5b506102cf600b5481565b34801561086757600080fd5b506102cf60045481565b34801561087d57600080fd5b5061033d61088c366004612210565b6116d8565b34801561089d57600080fd5b506103806108ac3660046121b3565b611710565b3480156108bd57600080fd5b506102cf6101f481565b3480156108d357600080fd5b506102cf600c5481565b3480156108e957600080fd5b506104346117d2565b60008060008084116109405760405162461bcd60e51b81526020600482015260126024820152710416d6f756e74206d757374206265203e20360741b60448201526064015b60405180910390fd5b606461094d85604161241f565b610957919061231d565b606461096486601b61241f565b61096e919061231d565b606461097b87600861241f565b610985919061231d565b9250925092509193909250565b600d5460ff16156109b55760405162461bcd60e51b8152600401610937906122a2565b610e106004546109c59190612305565b421015610a095760405162461bcd60e51b8152602060048201526012602482015271149bdd5b99081b9bdd08199a5b9a5cda195960721b6044820152606401610937565b60105460ff1615610a505760405162461bcd60e51b8152602060048201526011602482015270105b1c9958591e4818dbdb5b5a5d1d1959607a1b6044820152606401610937565b610a5861183f565b565b600081815260116020908152604091829020805483518184028101840190945280845260609392830182828015610aba57602002820191906000526020600020905b81546001600160a01b03168152600190910190602001808311610a9c575b50505050509050919050565b60008060008060006003546008541115610aed57600354600854610aea919061243e565b90505b6006546007546008549196506001600160a01b031694509250905090919293565b6000546001600160a01b03163314610b385760405162461bcd60e51b81526004016109379061227e565b600d5460ff16610b775760405162461bcd60e51b815260206004820152600a602482015269139bdd081c185d5cd95960b21b6044820152606401610937565b600d805460ff19169055604051600081527fb80d1ae5628c2af91424c54c87acfd15016be4bebeef0425b328238702f34831906020015b60405180910390a1565b60008060008060006015805490508610610c045760405162461bcd60e51b815260206004820152600d60248201526c092dcecc2d8d2c840d2dcc8caf609b1b6044820152606401610937565b600060158781548110610c2757634e487b7160e01b600052603260045260246000fd5b60009182526020918290206040805160a08101825260059390930290910180546001600160a01b03168084526001820154948401859052600282015492840183905260038201546060850181905260049092015460ff16151560809094018490529b939a509098509650945092505050565b600d5460ff1615610cbc5760405162461bcd60e51b8152600401610937906122a2565b6002600e541415610cdf5760405162461bcd60e51b8152600401610937906122ce565b6002600e55600554341015610d2d5760405162461bcd60e51b8152602060048201526014602482015273416d6f756e742062656c6f77206d696e696d756d60601b6044820152606401610937565b676f05b59d3b200000341115610d7e5760405162461bcd60e51b8152602060048201526016602482015275416d6f756e742065786365656473206d6178696d756d60501b6044820152606401610937565b6003546000908152601160205260409020546101f411610de05760405162461bcd60e51b815260206004820152601860248201527f4d6178207061727469636970616e7473207265616368656400000000000000006044820152606401610937565b610de8611884565b610e10600454610df89190612305565b4210158015610e0a575060105460ff16155b15610e1757610e1761183f565b60006064610e2660413461241f565b610e30919061231d565b905060006064610e41601b3461241f565b610e4b919061231d565b905060006064610e5c60083461241f565b610e66919061231d565b9050610e706119d1565b8260016000828254610e829190612305565b925050819055508160026000828254610e9b9190612305565b9250508190555082600b6000828254610eb49190612305565b90915550506003546000908152601260209081526040808320338452909152902054610f0c5760035460009081526011602090815260408220805460018101825590835291200180546001600160a01b031916331790555b3360009081526014602052604090205460ff16610f5157336000908152601460205260408120805460ff191660011790556009805491610f4b83612455565b91905055505b600354600090815260126020908152604080832033845290915281208054349290610f7d908490612305565b90915550503360009081526013602052604081208054349290610fa1908490612305565b90915550506040516000906001600160a01b037f0000000000000000000000000000000000000000000000000000000000000000169083908381818185875af1925050503d8060008114611011576040519150601f19603f3d011682016040523d82523d6000602084013e611016565b606091505b50509050806110675760405162461bcd60e51b815260206004820152601760248201527f43726561746f72207472616e73666572206661696c65640000000000000000006044820152606401610937565b60405160009061dead9086908381818185875af1925050503d80600081146110ab576040519150601f19603f3d011682016040523d82523d6000602084013e6110b0565b606091505b50509050806110f85760405162461bcd60e51b8152602060048201526014602482015273109d5c9b881d1c985b9cd9995c8819985a5b195960621b6044820152606401610937565b600354604080513481526020810188905290810186905260608101859052608081019190915233907f80f0548872ebb3c3d5ff596e5655a9ef603d14b49cacd33460620b70bed258649060a00160405180910390a250506001600e55505050565b60105460009081908190819060ff1680156111815750600f5461117d906003612305565b4311155b156111a35743600f5460036111969190612305565b6111a0919061243e565b90505b601054600f5460ff909116959094509092509050565b600d5460ff16156111dc5760405162461bcd60e51b8152600401610937906122a2565b60105460ff166112225760405162461bcd60e51b8152602060048201526011602482015270135d5cdd0818dbdb5b5a5d08199a5c9cdd607a1b6044820152606401610937565b600f54611230906003612305565b431161126e5760405162461bcd60e51b815260206004820152600d60248201526c57616974203320626c6f636b7360981b6044820152606401610937565b610a58611ab1565b6002600e5414156112995760405162461bcd60e51b8152600401610937906122ce565b6002600e556006546112e25760405162461bcd60e51b81526020600482015260126024820152714e6f20756e636c61696d6564207072697a6560701b6044820152606401610937565b6007546001600160a01b031661132e5760405162461bcd60e51b81526020600482015260116024820152702737903832b73234b733903bb4b73732b960791b6044820152606401610937565b60085460035411156113795760405162461bcd60e51b815260206004820152601460248201527310db185a5b481c195c9a5bd908195e1c1a5c995960621b6044820152606401610937565b60068054600780546000938490556001600160a01b0319811690915560089290925560155490916001600160a01b031690156114035760158054600191906113c290839061243e565b815481106113e057634e487b7160e01b600052603260045260246000fd5b60009182526020909120600590910201600401805460ff19169115159190911790555b6000816001600160a01b03168360405160006040518083038185875af1925050503d8060008114611450576040519150601f19603f3d011682016040523d82523d6000602084013e611455565b606091505b505090508061149e5760405162461bcd60e51b8152602060048201526015602482015274141c9a5e99481d1c985b9cd9995c8819985a5b1959605a1b6044820152606401610937565b336001600160a01b0316826001600160a01b03167f443d85c762bec14c07ce0982214689e7ac8baae94cf44daf3eca90f1d93932a88560016003546114e3919061243e565b6040805192835260208301919091520160405180910390a350506001600e5550565b6000546001600160a01b0316331461152f5760405162461bcd60e51b81526004016109379061227e565b600d5460ff16156115525760405162461bcd60e51b8152600401610937906122a2565b600d805460ff191660019081179091556040519081527fb80d1ae5628c2af91424c54c87acfd15016be4bebeef0425b328238702f3483190602001610bae565b600080610e106004546115a59190612305565b90508042106115b657600091505090565b6115c0428261243e565b91505090565b6000546001600160a01b031633146115f05760405162461bcd60e51b81526004016109379061227e565b600081116116355760405162461bcd60e51b81526020600482015260126024820152710416d6f756e74206d757374206265203e20360741b6044820152606401610937565b60058190556040518181527ff20c987ec965f601cf6dfb8d57644b3cfff2637ee29bc07b4f104d4040bba7f29060200160405180910390a150565b6015818154811061168057600080fd5b6000918252602090912060059091020180546001820154600283015460038401546004909401546001600160a01b0390931694509092909160ff1685565b6000610e106004546116d09190612305565b421015905090565b601160205281600052604060002081815481106116f457600080fd5b6000918252602090912001546001600160a01b03169150829050565b6000546001600160a01b0316331461173a5760405162461bcd60e51b81526004016109379061227e565b6001600160a01b0381166117825760405162461bcd60e51b815260206004820152600f60248201526e496e76616c6964206164647265737360881b6044820152606401610937565b600080546001600160a01b038381166001600160a01b0319831681178455604051919092169283917f8be0079c531659141344cd1fd0a4f28419497f9722a3daafe3b4186f6b6457e09190a35050565b60035460009081526011602090815260409182902080548351818402810184019094528084526060939283018282801561183557602002820191906000526020600020905b81546001600160a01b03168152600190910190602001808311611817575b5050505050905090565b43600f8190556010805460ff191660011790556040517fcf1d84e7723808f3634ced96406c018a2106b3b177dc7262929cd613eb2f0e7991610bae9190815260200190565b60006006541180156118995750600854600354115b15610a585760068054600780546000938490556001600160a01b031981169091556008839055600c805492936001600160a01b03909216928492906118df908490612305565b909155505060405160009061dead9084908381818185875af1925050503d8060008114611928576040519150601f19603f3d011682016040523d82523d6000602084013e61192d565b606091505b505090508061197e5760405162461bcd60e51b815260206004820152601b60248201527f556e636c61696d6564207072697a65206275726e206661696c656400000000006044820152606401610937565b816001600160a01b03167f022d53c43006b96d1ed346036ebf3ba49fd6311251a0738167b262f823d0f63c846003546040516119c4929190918252602082015260400190565b60405180910390a2505050565b6000805b6032811015611a56576119e9600282612374565b6119f39083612305565b9150611a016103e883612470565b915060005b600a811015611a43576064611a1b828461241f565b611a259190612470565b611a2f9084612305565b925080611a3b81612455565b915050611a06565b5080611a4e81612455565b9150506119d5565b50611a5f612178565b60005b600a811015611aac57611a758184612305565b8282600a8110611a9557634e487b7160e01b600052603260045260246000fd5b602002015280611aa481612455565b915050611a62565b505050565b6002600e541415611ad45760405162461bcd60e51b8152600401610937906122ce565b6002600e5560105460ff16611b2b5760405162461bcd60e51b815260206004820152601860248201527f52616e646f6d6e657373206e6f7420636f6d6d697474656400000000000000006044820152606401610937565b600f54611b39906003612305565b4311611b775760405162461bcd60e51b815260206004820152600d60248201526c57616974203320626c6f636b7360981b6044820152606401610937565b600354600081815260116020908152604080832080548251818502810185019093528083529192909190830182828015611bda57602002820191906000526020600020905b81546001600160a01b03168152600190910190602001808311611bbc575b5050505050905060008151118015611bf457506000600254115b1561201957600080825167ffffffffffffffff811115611c2457634e487b7160e01b600052604160045260246000fd5b604051908082528060200260200182016040528015611c4d578160200160208202803683370190505b50905060005b8351811015611d1457600085815260126020526040812085518290879085908110611c8e57634e487b7160e01b600052603260045260246000fd5b60200260200101516001600160a01b03166001600160a01b031681526020019081526020016000205490506000611cc48261208e565b9050611cd08186612305565b945084848481518110611cf357634e487b7160e01b600052603260045260246000fd5b60200260200101818152505050508080611d0c90612455565b915050611c53565b506000611d20836120f0565b90507f88b70371ec8ef9b20ed8a97af482308c8e8f7587260d3bb895f0fbc5d1d77ff381604051611d5391815260200190565b60405180910390a16000805b8551811015611dd857838181518110611d8857634e487b7160e01b600052603260045260246000fd5b6020026020010151831015611dc657858181518110611db757634e487b7160e01b600052603260045260246000fd5b60200260200101519150611dd8565b80611dd081612455565b915050611d5f565b506002805460009091556006819055600780546001600160a01b0319166001600160a01b038416179055600354611e1190600a90612305565b60085560038054906000611e2483612455565b90915550504260048190556010805460ff199081169091556000600f8190556040805160a0810182526001600160a01b038781168252602082018781529282018d815260608301968752608083018581526015805460018101825590875293517f55f448fdea98c4d29eb340757ef0a66cd03dbb9538908a6a81d96026b71ec475600590950294850180546001600160a01b031916919094161790925592517f55f448fdea98c4d29eb340757ef0a66cd03dbb9538908a6a81d96026b71ec47683015591517f55f448fdea98c4d29eb340757ef0a66cd03dbb9538908a6a81d96026b71ec47782015593517f55f448fdea98c4d29eb340757ef0a66cd03dbb9538908a6a81d96026b71ec478850155517f55f448fdea98c4d29eb340757ef0a66cd03dbb9538908a6a81d96026b71ec4799093018054909216921515929092179055600a805491611f7483612455565b909155505060085460408051838152602081018a9052908101919091526001600160a01b038316907f6e8dc1353ef256756a04b2d5c32fe12fa8d3a9633f52056cda478393a1b8c7659060600160405180910390a27f278844837bcf8364a705384bf3a2812901f54155bae86dea81dd52aa5b9ec0e3600354600454604051612007929190918252602082015260400190565b60405180910390a15050505050612085565b6003805490600061202983612455565b90915550504260048190556010805460ff191690556000600f556003546040517f278844837bcf8364a705384bf3a2812901f54155bae86dea81dd52aa5b9ec0e39261207c928252602082015260400190565b60405180910390a15b50506001600e55565b60006064676f05b59d3b20000083106120b3576120ac600382612305565b90506120ea565b676124fee993bc000083106120cd576120ac600282612305565b6753444835ec58000083106120ea576120e7600182612305565b90505b92915050565b600080600f5460036121029190612305565b409050806121195761211560014361243e565b4090505b600f546003546001546009546040805160208101879052908101949094526060840192909252608083015260a0820152839060c0016040516020818303038152906040528051906020012060001c6121719190612470565b9392505050565b604051806101400160405280600a906020820280368337509192915050565b80356001600160a01b03811681146121ae57600080fd5b919050565b6000602082840312156121c4578081fd5b61217182612197565b6000602082840312156121de578081fd5b5035919050565b600080604083850312156121f7578081fd5b8235915061220760208401612197565b90509250929050565b60008060408385031215612222578182fd5b50508035926020909101359150565b6020808252825182820181905260009190848201906040850190845b818110156122725783516001600160a01b03168352928401929184019160010161224d565b50909695505050505050565b6020808252600a908201526927b7363c9037bbb732b960b11b604082015260600190565b60208082526012908201527110dbdb9d1c9858dd081a5cc81c185d5cd95960721b604082015260600190565b6020808252601f908201527f5265656e7472616e637947756172643a207265656e7472616e742063616c6c00604082015260600190565b6000821982111561231857612318612484565b500190565b60008261232c5761232c61249a565b500490565b600181815b8085111561236c57816000190482111561235257612352612484565b8085161561235f57918102915b93841c9390800290612336565b509250929050565b600061217160ff84168360008261238d575060016120ea565b8161239a575060006120ea565b81600181146123b057600281146123ba576123d6565b60019150506120ea565b60ff8411156123cb576123cb612484565b50506001821b6120ea565b5060208310610133831016604e8410600b84101617156123f9575081810a6120ea565b6124038383612331565b806000190482111561241757612417612484565b029392505050565b600081600019048311821515161561243957612439612484565b500290565b60008282101561245057612450612484565b500390565b600060001982141561246957612469612484565b5060010190565b60008261247f5761247f61249a565b500690565b634e487b7160e01b600052601160045260246000fd5b634e487b7160e01b600052601260045260246000fdfea26469706673582212205ab45dee6c7e4507f4bddaf67b600efc77a105d92977a57cfe99659a05c5a15a64736f6c63430008040033",
  "linkReferences": {},
  "deployedLinkReferences": {}
}