{
  "_format": "hh-sol-artifact-1",
  "contractName": "ReefBurner",
  "sourceName": "contracts/ReefBurner.sol",
  "abi": [
    {
      "inputs": [
        {
          "internalType": "address",
          "name": "_creatorWallet",
          "type": "address"
        }
      ],
      "stateMutability": "nonpayable",
      "type": "constructor"
    },
    {
      "anonymous": false,
      "inputs": [
        {
          "indexed": true,
          "internalType": "address",
          "name": "burner",
          "type": "address"
        },
        {
          "indexed": false,
          "internalType": "uint256",
          "name": "amount",
          "type": "uint256"
        },
        {
          "indexed": false,
          "internalType": "uint256",
          "name": "burnedAmount",
          "type": "uint256"
        },
        {
          "indexed": false,
          "internalType": "uint256",
          "name": "prizeAmount",
          "type": "uint256"
        },
        {
          "indexed": false,
          "internalType": "uint256",
          "name": "creatorAmount",
          "type": "uint256"
        },
        {
          "indexed": false,
          "internalType": "uint256",
          "name": "roundNumber",
          "type": "uint256"
        }
      ],
      "name": "Burned",
      "type": "event"
    },
    {
      "anonymous": false,
      "inputs": [
        {
          "indexed": false,
          "internalType": "address",
          "name": "newCreatorWallet",
          "type": "address"
        }
      ],
      "name": "CreatorWalletUpdated",
      "type": "event"
    },
    {
      "anonymous": false,
      "inputs": [
        {
          "indexed": false,
          "internalType": "bool",
          "name": "paused",
          "type": "bool"
        }
      ],
      "name": "EmergencyPause",
      "type": "event"
    },
    {
      "anonymous": false,
      "inputs": [
        {
          "indexed": false,
          "internalType": "uint256",
          "name": "newAmount",
          "type": "uint256"
        }
      ],
      "name": "MinBurnAmountUpdated",
      "type": "event"
    },
    {
      "anonymous": false,
      "inputs": [
        {
          "indexed": false,
          "internalType": "uint256",
          "name": "roundNumber",
          "type": "uint256"
        },
        {
          "indexed": false,
          "internalType": "uint256",
          "name": "startTime",
          "type": "uint256"
        }
      ],
      "name": "RoundStarted",
      "type": "event"
    },
    {
      "anonymous": false,
      "inputs": [
        {
          "indexed": true,
          "internalType": "address",
          "name": "winner",
          "type": "address"
        },
        {
          "indexed": false,
          "internalType": "uint256",
          "name": "prizeAmount",
          "type": "uint256"
        },
        {
          "indexed": false,
          "internalType": "uint256",
          "name": "roundNumber",
          "type": "uint256"
        },
        {
          "indexed": false,
          "internalType": "uint256",
          "name": "timestamp",
          "type": "uint256"
        }
      ],
      "name": "WinnerSelected",
      "type": "event"
    },
    {
      "inputs": [],
      "name": "BURN_PERCENTAGE",
      "outputs": [
        {
          "internalType": "uint256",
          "name": "",
          "type": "uint256"
        }
      ],
      "stateMutability": "view",
      "type": "function"
    },
    {
      "inputs": [],
      "name": "CREATOR_PERCENTAGE",
      "outputs": [
        {
          "internalType": "uint256",
          "name": "",
          "type": "uint256"
        }
      ],
      "stateMutability": "view",
      "type": "function"
    },
    {
      "inputs": [],
      "name": "LOTTERY_HOUR",
      "outputs": [
        {
          "internalType": "uint256",
          "name": "",
          "type": "uint256"
        }
      ],
      "stateMutability": "view",
      "type": "function"
    },
    {
      "inputs": [],
      "name": "MAX_BURN_AMOUNT",
      "outputs": [
        {
          "internalType": "uint256",
          "name": "",
          "type": "uint256"
        }
      ],
      "stateMutability": "view",
      "type": "function"
    },
    {
      "inputs": [],
      "name": "PRIZE_PERCENTAGE",
      "outputs": [
        {
          "internalType": "uint256",
          "name": "",
          "type": "uint256"
        }
      ],
      "stateMutability": "view",
      "type": "function"
    },
    {
      "inputs": [],
      "name": "ROUND_DURATION",
      "outputs": [
        {
          "internalType": "uint256",
          "name": "",
          "type": "uint256"
        }
      ],
      "stateMutability": "view",
      "type": "function"
    },
    {
      "inputs": [],
      "name": "burn",
      "outputs": [],
      "stateMutability": "payable",
      "type": "function"
    },
    {
      "inputs": [
        {
          "internalType": "uint256",
          "name": "amount",
          "type": "uint256"
        }
      ],
      "name": "calculateBurnDistribution",
      "outputs": [
        {
          "internalType": "uint256",
          "name": "burnedAmount",
          "type": "uint256"
        },
        {
          "internalType": "uint256",
          "name": "prizeContribution",
          "type": "uint256"
        },
        {
          "internalType": "uint256",
          "name": "creatorAmount",
          "type": "uint256"
        }
      ],
      "stateMutability": "pure",
      "type": "function"
    },
    {
      "inputs": [],
      "name": "creatorWallet",
      "outputs": [
        {
          "internalType": "address",
          "name": "",
          "type": "address"
        }
      ],
      "stateMutability": "view",
      "type": "function"
    },
    {
      "inputs": [],
      "name": "emergencyWithdraw",
      "outputs": [],
      "stateMutability": "nonpayable",
      "type": "function"
    },
    {
      "inputs": [],
      "name": "getContractBalance",
      "outputs": [
        {
          "internalType": "uint256",
          "name": "",
          "type": "uint256"
        }
      ],
      "stateMutability": "view",
      "type": "function"
    },
    {
      "inputs": [],
      "name": "getCurrentRoundParticipants",
      "outputs": [
        {
          "internalType": "address[]",
          "name": "",
          "type": "address[]"
        }
      ],
      "stateMutability": "view",
      "type": "function"
    },
    {
      "inputs": [
        {
          "internalType": "uint256",
          "name": "_roundNumber",
          "type": "uint256"
        }
      ],
      "name": "getRoundParticipants",
      "outputs": [
        {
          "internalType": "address[]",
          "name": "",
          "type": "address[]"
        }
      ],
      "stateMutability": "view",
      "type": "function"
    },
    {
      "inputs": [],
      "name": "getStatistics",
      "outputs": [
        {
          "internalType": "uint256",
          "name": "participants",
          "type": "uint256"
        },
        {
          "internalType": "uint256",
          "name": "winnersCount",
          "type": "uint256"
        },
        {
          "internalType": "uint256",
          "name": "reefBurned",
          "type": "uint256"
        },
        {
          "internalType": "uint256",
          "name": "currentPrize",
          "type": "uint256"
        },
        {
          "internalType": "uint256",
          "name": "currentRoundParticipantsCount",
          "type": "uint256"
        }
      ],
      "stateMutability": "view",
      "type": "function"
    },
    {
      "inputs": [],
      "name": "getTimeRemainingInRound",
      "outputs": [
        {
          "internalType": "uint256",
          "name": "",
          "type": "uint256"
        }
      ],
      "stateMutability": "view",
      "type": "function"
    },
    {
      "inputs": [
        {
          "internalType": "address",
          "name": "user",
          "type": "address"
        }
      ],
      "name": "getUserBurnInCurrentRound",
      "outputs": [
        {
          "internalType": "uint256",
          "name": "",
          "type": "uint256"
        }
      ],
      "stateMutability": "view",
      "type": "function"
    },
    {
      "inputs": [
        {
          "internalType": "uint256",
          "name": "index",
          "type": "uint256"
        }
      ],
      "name": "getWinner",
      "outputs": [
        {
          "internalType": "address",
          "name": "winnerAddress",
          "type": "address"
        },
        {
          "internalType": "uint256",
          "name": "prizeAmount",
          "type": "uint256"
        },
        {
          "internalType": "uint256",
          "name": "roundNum",
          "type": "uint256"
        },
        {
          "internalType": "uint256",
          "name": "timestamp",
          "type": "uint256"
        }
      ],
      "stateMutability": "view",
      "type": "function"
    },
    {
      "inputs": [],
      "name": "getWinnersCount",
      "outputs": [
        {
          "internalType": "uint256",
          "name": "",
          "type": "uint256"
        }
      ],
      "stateMutability": "view",
      "type": "function"
    },
    {
      "inputs": [
        {
          "internalType": "address",
          "name": "",
          "type": "address"
        }
      ],
      "name": "hasParticipated",
      "outputs": [
        {
          "internalType": "bool",
          "name": "",
          "type": "bool"
        }
      ],
      "stateMutability": "view",
      "type": "function"
    },
    {
      "inputs": [],
      "name": "minBurnAmount",
      "outputs": [
        {
          "internalType": "uint256",
          "name": "",
          "type": "uint256"
        }
      ],
      "stateMutability": "view",
      "type": "function"
    },
    {
      "inputs": [],
      "name": "owner",
      "outputs": [
        {
          "internalType": "address",
          "name": "",
          "type": "address"
        }
      ],
      "stateMutability": "view",
      "type": "function"
    },
    {
      "inputs": [],
      "name": "pause",
      "outputs": [],
      "stateMutability": "nonpayable",
      "type": "function"
    },
    {
      "inputs": [],
      "name": "paused",
      "outputs": [
        {
          "internalType": "bool",
          "name": "",
          "type": "bool"
        }
      ],
      "stateMutability": "view",
      "type": "function"
    },
    {
      "inputs": [],
      "name": "prizePool",
      "outputs": [
        {
          "internalType": "uint256",
          "name": "",
          "type": "uint256"
        }
      ],
      "stateMutability": "view",
      "type": "function"
    },
    {
      "inputs": [],
      "name": "roundNumber",
      "outputs": [
        {
          "internalType": "uint256",
          "name": "",
          "type": "uint256"
        }
      ],
      "stateMutability": "view",
      "type": "function"
    },
    {
      "inputs": [
        {
          "internalType": "uint256",
          "name": "",
          "type": "uint256"
        },
        {
          "internalType": "uint256",
          "name": "",
          "type": "uint256"
        }
      ],
      "name": "roundParticipants",
      "outputs": [
        {
          "internalType": "address",
          "name": "",
          "type": "address"
        }
      ],
      "stateMutability": "view",
      "type": "function"
    },
    {
      "inputs": [],
      "name": "roundStartTime",
      "outputs": [
        {
          "internalType": "uint256",
          "name": "",
          "type": "uint256"
        }
      ],
      "stateMutability": "view",
      "type": "function"
    },
    {
      "inputs": [
        {
          "internalType": "address",
          "name": "_newCreatorWallet",
          "type": "address"
        }
      ],
      "name": "setCreatorWallet",
      "outputs": [],
      "stateMutability": "nonpayable",
      "type": "function"
    },
    {
      "inputs": [
        {
          "internalType": "uint256",
          "name": "_newAmount",
          "type": "uint256"
        }
      ],
      "name": "setMinBurnAmount",
      "outputs": [],
      "stateMutability": "nonpayable",
      "type": "function"
    },
    {
      "inputs": [],
      "name": "shouldEndRound",
      "outputs": [
        {
          "internalType": "bool",
          "name": "",
          "type": "bool"
        }
      ],
      "stateMutability": "view",
      "type": "function"
    },
    {
      "inputs": [],
      "name": "totalBurned",
      "outputs": [
        {
          "internalType": "uint256",
          "name": "",
          "type": "uint256"
        }
      ],
      "stateMutability": "view",
      "type": "function"
    },
    {
      "inputs": [],
      "name": "totalParticipants",
      "outputs": [
        {
          "internalType": "uint256",
          "name": "",
          "type": "uint256"
        }
      ],
      "stateMutability": "view",
      "type": "function"
    },
    {
      "inputs": [],
      "name": "totalReefBurned",
      "outputs": [
        {
          "internalType": "uint256",
          "name": "",
          "type": "uint256"
        }
      ],
      "stateMutability": "view",
      "type": "function"
    },
    {
      "inputs": [
        {
          "internalType": "address",
          "name": "",
          "type": "address"
        }
      ],
      "name": "totalUserBurned",
      "outputs": [
        {
          "internalType": "uint256",
          "name": "",
          "type": "uint256"
        }
      ],
      "stateMutability": "view",
      "type": "function"
    },
    {
      "inputs": [],
      "name": "totalWinners",
      "outputs": [
        {
          "internalType": "uint256",
          "name": "",
          "type": "uint256"
        }
      ],
      "stateMutability": "view",
      "type": "function"
    },
    {
      "inputs": [
        {
          "internalType": "address",
          "name": "newOwner",
          "type": "address"
        }
      ],
      "name": "transferOwnership",
      "outputs": [],
      "stateMutability": "nonpayable",
      "type": "function"
    },
    {
      "inputs": [],
      "name": "triggerRoundEnd",
      "outputs": [],
      "stateMutability": "nonpayable",
      "type": "function"
    },
    {
      "inputs": [],
      "name": "unpause",
      "outputs": [],
      "stateMutability": "nonpayable",
      "type": "function"
    },
    {
      "inputs": [
        {
          "internalType": "uint256",
          "name": "",
          "type": "uint256"
        },
        {
          "internalType": "address",
          "name": "",
          "type": "address"
        }
      ],
      "name": "userBurnedInRound",
      "outputs": [
        {
          "internalType": "uint256",
          "name": "",
          "type": "uint256"
        }
      ],
      "stateMutability": "view",
      "type": "function"
    },
    {
      "inputs": [
        {
          "internalType": "uint256",
          "name": "",
          "type": "uint256"
        }
      ],
      "name": "winners",
      "outputs": [
        {
          "internalType": "address",
          "name": "winnerAddress",
          "type": "address"
        },
        {
          "internalType": "uint256",
          "name": "prizeAmount",
          "type": "uint256"
        },
        {
          "internalType": "uint256",
          "name": "roundNumber",
          "type": "uint256"
        },
        {
          "internalType": "uint256",
          "name": "timestamp",
          "type": "uint256"
        }
      ],
      "stateMutability": "view",
      "type": "function"
    },
    {
      "stateMutability": "payable",
      "type": "receive"
    }
  ],
  "bytecode": "0x6080604052674563918244f4000060065534801561001c57600080fd5b5060405162001e5b38038062001e5b83398101604081905261003d9161010b565b6001600160a01b0381166100975760405162461bcd60e51b815260206004820152601660248201527f496e76616c69642063726561746f722077616c6c657400000000000000000000604482015260640160405180910390fd5b60008054336001600160a01b031991821617909155600180549091166001600160a01b03831617815560048190554260058190556040805192835260208301919091527f278844837bcf8364a705384bf3a2812901f54155bae86dea81dd52aa5b9ec0e3910160405180910390a150610139565b60006020828403121561011c578081fd5b81516001600160a01b0381168114610132578182fd5b9392505050565b611d1280620001496000396000f3fe60806040526004361061023f5760003560e01c80638da5cb5b1161012e578063bcc941b6116100ab578063db2e21bc1161006f578063db2e21bc146106d5578063dd4f8f74146106ea578063de26eadf14610700578063f2fde38b14610720578063fd24537f1461074057600080fd5b8063bcc941b614610651578063bfeaabf214610667578063ca9f19ef14610694578063d89135cd146106a9578063dab32d4d146106bf57600080fd5b8063a26dbf26116100f2578063a26dbf2614610592578063a2fb1175146105a8578063a8ca30d3146105c8578063b4fb3ee3146105dd578063b5b591c81461060d57600080fd5b80638da5cb5b14610513578063941aed7f146105335780639649b91014610548578063975ddab21461055d5780639ab8e6d21461057257600080fd5b80635c975abb116101bc57806374b064aa1161018057806374b064aa146104635780637cdc65f21461047857806381e333d2146104b0578063839975bb146104e85780638456cb59146104fe57600080fd5b80635c975abb146103de5780636641ea08146104085780636e7de4c61461041e5780636f9fb98a1461043a578063719ce73e1461044d57600080fd5b80633f4ba83a116102035780633f4ba83a146103415780634129b2c91461035657806344df8e70146103a05780634940730b146103a85780634e2786fb146103c857600080fd5b80630b75cef41461024b5780630f8fa2161461026f578063141b928a146102aa578063372d6b27146102c157806337305df51461031457600080fd5b3661024657005b600080fd5b34801561025757600080fd5b50600f545b6040519081526020015b60405180910390f35b34801561027b57600080fd5b5061028f61028a366004611a1d565b610755565b60408051938452602084019290925290820152606001610266565b3480156102b657600080fd5b506102bf610800565b005b3480156102cd57600080fd5b506007546008546009546003546004546000908152600b6020526040902054604080519586526020860194909452928401919091526060830152608082015260a001610266565b34801561032057600080fd5b5061033461032f366004611a1d565b610885565b6040516102669190611a81565b34801561034d57600080fd5b506102bf6108f1565b34801561036257600080fd5b50610376610371366004611a1d565b6109a7565b604080516001600160a01b0390951685526020850193909352918301526060820152608001610266565b6102bf610a72565b3480156103b457600080fd5b506102bf6103c33660046119fc565b610e6c565b3480156103d457600080fd5b5061025c60045481565b3480156103ea57600080fd5b50600a546103f89060ff1681565b6040519015158152602001610266565b34801561041457600080fd5b5061025c610e1081565b34801561042a57600080fd5b5061025c676f05b59d3b20000081565b34801561044657600080fd5b504761025c565b34801561045957600080fd5b5061025c60035481565b34801561046f57600080fd5b5061025c601b81565b34801561048457600080fd5b50600154610498906001600160a01b031681565b6040516001600160a01b039091168152602001610266565b3480156104bc57600080fd5b5061025c6104cb366004611a35565b600c60209081526000928352604080842090915290825290205481565b3480156104f457600080fd5b5061025c60065481565b34801561050a57600080fd5b506102bf610f33565b34801561051f57600080fd5b50600054610498906001600160a01b031681565b34801561053f57600080fd5b5061025c610fc0565b34801561055457600080fd5b5061025c604181565b34801561056957600080fd5b5061025c600f81565b34801561057e57600080fd5b506102bf61058d366004611a1d565b610ff4565b34801561059e57600080fd5b5061025c60075481565b3480156105b457600080fd5b506103766105c3366004611a1d565b6110a3565b3480156105d457600080fd5b506103f86110e7565b3480156105e957600080fd5b506103f86105f83660046119fc565b600e6020526000908152604090205460ff1681565b34801561061957600080fd5b5061025c6106283660046119fc565b6004546000908152600c602090815260408083206001600160a01b039094168352929052205490565b34801561065d57600080fd5b5061025c60085481565b34801561067357600080fd5b5061025c6106823660046119fc565b600d6020526000908152604090205481565b3480156106a057600080fd5b5061025c600881565b3480156106b557600080fd5b5061025c60025481565b3480156106cb57600080fd5b5061025c60095481565b3480156106e157600080fd5b506102bf611101565b3480156106f657600080fd5b5061025c60055481565b34801561070c57600080fd5b5061049861071b366004611a60565b611254565b34801561072c57600080fd5b506102bf61073b3660046119fc565b61128c565b34801561074c57600080fd5b50610334611320565b60008060008084116107ae5760405162461bcd60e51b815260206004820152601d60248201527f416d6f756e74206d7573742062652067726561746572207468616e203000000060448201526064015b60405180910390fd5b60646107bb856041611c4b565b6107c59190611b49565b60646107d286601b611c4b565b6107dc9190611b49565b60646107e9876008611c4b565b6107f39190611b49565b9250925092509193909250565b600a5460ff16156108235760405162461bcd60e51b81526004016107a590611ace565b610e106005546108339190611b31565b42101561087b5760405162461bcd60e51b8152602060048201526016602482015275149bdd5b99081b9bdd08199a5b9a5cda1959081e595d60521b60448201526064016107a5565b61088361138d565b565b6000818152600b60209081526040918290208054835181840281018401909452808452606093928301828280156108e557602002820191906000526020600020905b81546001600160a01b031681526001909101906020018083116108c7575b50505050509050919050565b6000546001600160a01b0316331461091b5760405162461bcd60e51b81526004016107a590611afa565b600a5460ff166109665760405162461bcd60e51b815260206004820152601660248201527510dbdb9d1c9858dd081a5cc81b9bdd081c185d5cd95960521b60448201526064016107a5565b600a805460ff19169055604051600081527fb80d1ae5628c2af91424c54c87acfd15016be4bebeef0425b328238702f34831906020015b60405180910390a1565b600080600080600f8054905085106109f15760405162461bcd60e51b815260206004820152600d60248201526c092dcecc2d8d2c840d2dcc8caf609b1b60448201526064016107a5565b6000600f8681548110610a1457634e487b7160e01b600052603260045260246000fd5b60009182526020918290206040805160808101825260049390930290910180546001600160a01b0316808452600182015494840185905260028201549284018390526003909101546060909301839052999298509650945092505050565b600a5460ff1615610a955760405162461bcd60e51b81526004016107a590611ace565b600654341015610ade5760405162461bcd60e51b8152602060048201526014602482015273416d6f756e742062656c6f77206d696e696d756d60601b60448201526064016107a5565b676f05b59d3b200000341115610b2f5760405162461bcd60e51b8152602060048201526016602482015275416d6f756e742065786365656473206d6178696d756d60501b60448201526064016107a5565b610e10600554610b3f9190611b31565b4210610b4d57610b4d61138d565b60006064610b5c604134611c4b565b610b669190611b49565b905060006064610b77601b34611c4b565b610b819190611b49565b905060006064610b92600834611c4b565b610b9c9190611b49565b9050610ba661180c565b8260026000828254610bb89190611b31565b925050819055508160036000828254610bd19190611b31565b925050819055508260096000828254610bea9190611b31565b90915550506004546000908152600c60209081526040808320338452909152902054610c42576004546000908152600b602090815260408220805460018101825590835291200180546001600160a01b031916331790555b336000908152600e602052604090205460ff16610c8757336000908152600e60205260408120805460ff191660011790556007805491610c8183611c81565b91905055505b6004546000908152600c6020908152604080832033845290915281208054349290610cb3908490611b31565b9091555050336000908152600d602052604081208054349290610cd7908490611b31565b90915550506001546040516000916001600160a01b03169083908381818185875af1925050503d8060008114610d29576040519150601f19603f3d011682016040523d82523d6000602084013e610d2e565b606091505b5050905080610d7f5760405162461bcd60e51b815260206004820152601760248201527f43726561746f72207472616e73666572206661696c656400000000000000000060448201526064016107a5565b60405160009061dead9086908381818185875af1925050503d8060008114610dc3576040519150601f19603f3d011682016040523d82523d6000602084013e610dc8565b606091505b5050905080610e105760405162461bcd60e51b8152602060048201526014602482015273109d5c9b881d1c985b9cd9995c8819985a5b195960621b60448201526064016107a5565b600454604080513481526020810188905290810186905260608101859052608081019190915233907f80f0548872ebb3c3d5ff596e5655a9ef603d14b49cacd33460620b70bed258649060a00160405180910390a25050505050565b6000546001600160a01b03163314610e965760405162461bcd60e51b81526004016107a590611afa565b6001600160a01b038116610ede5760405162461bcd60e51b815260206004820152600f60248201526e496e76616c6964206164647265737360881b60448201526064016107a5565b600180546001600160a01b0319166001600160a01b0383169081179091556040519081527fc650520a780b16ba23de85005b45f178b68c829fea03946dadd7cd0b1de4b801906020015b60405180910390a150565b6000546001600160a01b03163314610f5d5760405162461bcd60e51b81526004016107a590611afa565b600a5460ff1615610f805760405162461bcd60e51b81526004016107a590611ace565b600a805460ff191660019081179091556040519081527fb80d1ae5628c2af91424c54c87acfd15016be4bebeef0425b328238702f348319060200161099d565b600080610e10600554610fd39190611b31565b9050804210610fe457600091505090565b610fee4282611c6a565b91505090565b6000546001600160a01b0316331461101e5760405162461bcd60e51b81526004016107a590611afa565b6000811161106e5760405162461bcd60e51b815260206004820152601d60248201527f416d6f756e74206d7573742062652067726561746572207468616e203000000060448201526064016107a5565b60068190556040518181527ff20c987ec965f601cf6dfb8d57644b3cfff2637ee29bc07b4f104d4040bba7f290602001610f28565b600f81815481106110b357600080fd5b600091825260209091206004909102018054600182015460028301546003909301546001600160a01b039092169350919084565b6000610e106005546110f99190611b31565b421015905090565b6000546001600160a01b0316331461112b5760405162461bcd60e51b81526004016107a590611afa565b600a5460ff166111765760405162461bcd60e51b815260206004820152601660248201527510dbdb9d1c9858dd081a5cc81b9bdd081c185d5cd95960521b60448201526064016107a5565b47806111bb5760405162461bcd60e51b81526020600482015260146024820152734e6f2066756e647320746f20776974686472617760601b60448201526064016107a5565b600080546040516001600160a01b039091169083908381818185875af1925050503d8060008114611208576040519150601f19603f3d011682016040523d82523d6000602084013e61120d565b606091505b50509050806112505760405162461bcd60e51b815260206004820152600f60248201526e15da5d1a191c985dc819985a5b1959608a1b60448201526064016107a5565b5050565b600b602052816000526040600020818154811061127057600080fd5b6000918252602090912001546001600160a01b03169150829050565b6000546001600160a01b031633146112b65760405162461bcd60e51b81526004016107a590611afa565b6001600160a01b0381166112fe5760405162461bcd60e51b815260206004820152600f60248201526e496e76616c6964206164647265737360881b60448201526064016107a5565b600080546001600160a01b0319166001600160a01b0392909216919091179055565b6004546000908152600b602090815260409182902080548351818402810184019094528084526060939283018282801561138357602002820191906000526020600020905b81546001600160a01b03168152600190910190602001808311611365575b5050505050905090565b6004546000818152600b60209081526040808320805482518185028101850190935280835291929091908301828280156113f057602002820191906000526020600020905b81546001600160a01b031681526001909101906020018083116113d2575b505050505090506000815111801561140a57506000600354115b156117ac57600080825167ffffffffffffffff81111561143a57634e487b7160e01b600052604160045260246000fd5b604051908082528060200260200182016040528015611463578160200160208202803683370190505b50905060005b835181101561152a576000858152600c60205260408120855182908790859081106114a457634e487b7160e01b600052603260045260246000fd5b60200260200101516001600160a01b03166001600160a01b0316815260200190815260200160002054905060006114da826118ec565b90506114e68186611b31565b94508484848151811061150957634e487b7160e01b600052603260045260246000fd5b6020026020010181815250505050808061152290611c81565b915050611469565b5060006115368361194e565b90506000805b85518110156115b55783818151811061156557634e487b7160e01b600052603260045260246000fd5b60200260200101518310156115a35785818151811061159457634e487b7160e01b600052603260045260246000fd5b602002602001015191506115b5565b806115ad81611c81565b91505061153c565b5060038054600091829055604080516080810182526001600160a01b038581168252602082018481529282018b81524260608401908152600f805460018101825590885293517f8d1108e10bcb7c27dddfc02ed9d693a074039d026cf4ea4240b40f7d581ac802600490950294850180546001600160a01b031916919094161790925592517f8d1108e10bcb7c27dddfc02ed9d693a074039d026cf4ea4240b40f7d581ac80383015591517f8d1108e10bcb7c27dddfc02ed9d693a074039d026cf4ea4240b40f7d581ac80482015590517f8d1108e10bcb7c27dddfc02ed9d693a074039d026cf4ea4240b40f7d581ac805909101556008805491926116ba83611c81565b91905055506000826001600160a01b03168260405160006040518083038185875af1925050503d806000811461170c576040519150601f19603f3d011682016040523d82523d6000602084013e611711565b606091505b505090508061175a5760405162461bcd60e51b8152602060048201526015602482015274141c9a5e99481d1c985b9cd9995c8819985a5b1959605a1b60448201526064016107a5565b60408051838152602081018a9052428183015290516001600160a01b038516917f6e8dc1353ef256756a04b2d5c32fe12fa8d3a9633f52056cda478393a1b8c765919081900360600190a25050505050505b600480549060006117bc83611c81565b90915550504260058190556004546040517f278844837bcf8364a705384bf3a2812901f54155bae86dea81dd52aa5b9ec0e392611800928252602082015260400190565b60405180910390a15050565b6000805b603281101561189157611824600282611ba0565b61182e9083611b31565b915061183c6103e883611c9c565b915060005b600a81101561187e5760646118568284611c4b565b6118609190611c9c565b61186a9084611b31565b92508061187681611c81565b915050611841565b508061188981611c81565b915050611810565b5061189a6119c1565b60005b600a8110156118e7576118b08184611b31565b8282600a81106118d057634e487b7160e01b600052603260045260246000fd5b6020020152806118df81611c81565b91505061189d565b505050565b60006064676f05b59d3b20000083106119115761190a600382611b31565b9050611948565b676124fee993bc0000831061192b5761190a600282611b31565b6753444835ec580000831061194857611945600182611b31565b90505b92915050565b60008142443360045460025460405160200161199e959493929190948552602085019390935260609190911b6bffffffffffffffffffffffff191660408401526054830152607482015260940190565b6040516020818303038152906040528051906020012060001c6119489190611c9c565b604051806101400160405280600a906020820280368337509192915050565b80356001600160a01b03811681146119f757600080fd5b919050565b600060208284031215611a0d578081fd5b611a16826119e0565b9392505050565b600060208284031215611a2e578081fd5b5035919050565b60008060408385031215611a47578081fd5b82359150611a57602084016119e0565b90509250929050565b60008060408385031215611a72578182fd5b50508035926020909101359150565b6020808252825182820181905260009190848201906040850190845b81811015611ac25783516001600160a01b031683529284019291840191600101611a9d565b50909695505050505050565b60208082526012908201527110dbdb9d1c9858dd081a5cc81c185d5cd95960721b604082015260600190565b60208082526018908201527f4f6e6c79206f776e65722063616e2063616c6c20746869730000000000000000604082015260600190565b60008219821115611b4457611b44611cb0565b500190565b600082611b5857611b58611cc6565b500490565b600181815b80851115611b98578160001904821115611b7e57611b7e611cb0565b80851615611b8b57918102915b93841c9390800290611b62565b509250929050565b6000611a1660ff841683600082611bb957506001611948565b81611bc657506000611948565b8160018114611bdc5760028114611be657611c02565b6001915050611948565b60ff841115611bf757611bf7611cb0565b50506001821b611948565b5060208310610133831016604e8410600b8410161715611c25575081810a611948565b611c2f8383611b5d565b8060001904821115611c4357611c43611cb0565b029392505050565b6000816000190483118215151615611c6557611c65611cb0565b500290565b600082821015611c7c57611c7c611cb0565b500390565b6000600019821415611c9557611c95611cb0565b5060010190565b600082611cab57611cab611cc6565b500690565b634e487b7160e01b600052601160045260246000fd5b634e487b7160e01b600052601260045260246000fdfea2646970667358221220ce6989a6e5f1e9a0e91ffda38efaf0353cc50eecb57c9be12a81c32131e2a87064736f6c63430008040033",
  "linkReferences": {},
  "deployedLinkReferences": {}
}